{
  "_format": "hh-sol-artifact-1",
  "contractName": "Voting",
  "sourceName": "contracts/Voting.sol",
  "abi": [
    {
      "inputs": [],
      "stateMutability": "nonpayable",
      "type": "constructor"
    },
    {
      "anonymous": false,
      "inputs": [
        {
          "indexed": true,
          "internalType": "uint256",
          "name": "candidateId",
          "type": "uint256"
        },
        {
          "indexed": false,
          "internalType": "string",
          "name": "name",
          "type": "string"
        }
      ],
      "name": "CandidateAdded",
      "type": "event"
    },
    {
      "anonymous": false,
      "inputs": [],
      "name": "ElectionEnded",
      "type": "event"
    },
    {
      "anonymous": false,
      "inputs": [],
      "name": "ElectionStarted",
      "type": "event"
    },
    {
      "anonymous": false,
      "inputs": [
        {
          "indexed": true,
          "internalType": "address",
          "name": "voter",
          "type": "address"
        },
        {
          "indexed": true,
          "internalType": "uint256",
          "name": "candidateId",
          "type": "uint256"
        }
      ],
      "name": "VoteCast",
      "type": "event"
    },
    {
      "anonymous": false,
      "inputs": [
        {
          "indexed": true,
          "internalType": "address",
          "name": "voter",
          "type": "address"
        }
      ],
      "name": "VoterRegistered",
      "type": "event"
    },
    {
      "inputs": [
        {
          "internalType": "string",
          "name": "_name",
          "type": "string"
        }
      ],
      "name": "addCandidate",
      "outputs": [],
      "stateMutability": "nonpayable",
      "type": "function"
    },
    {
      "inputs": [
        {
          "internalType": "uint256",
          "name": "",
          "type": "uint256"
        }
      ],
      "name": "candidates",
      "outputs": [
        {
          "internalType": "string",
          "name": "name",
          "type": "string"
        },
        {
          "internalType": "uint256",
          "name": "voteCount",
          "type": "uint256"
        }
      ],
      "stateMutability": "view",
      "type": "function"
    },
    {
      "inputs": [],
      "name": "candidatesCount",
      "outputs": [
        {
          "internalType": "uint256",
          "name": "",
          "type": "uint256"
        }
      ],
      "stateMutability": "view",
      "type": "function"
    },
    {
      "inputs": [],
      "name": "electionActive",
      "outputs": [
        {
          "internalType": "bool",
          "name": "",
          "type": "bool"
        }
      ],
      "stateMutability": "view",
      "type": "function"
    },
    {
      "inputs": [],
      "name": "endElection",
      "outputs": [],
      "stateMutability": "nonpayable",
      "type": "function"
    },
    {
      "inputs": [
        {
          "internalType": "uint256",
          "name": "_candidateId",
          "type": "uint256"
        }
      ],
      "name": "getCandidate",
      "outputs": [
        {
          "internalType": "string",
          "name": "",
          "type": "string"
        },
        {
          "internalType": "uint256",
          "name": "",
          "type": "uint256"
        }
      ],
      "stateMutability": "view",
      "type": "function"
    },
    {
      "inputs": [],
      "name": "getResults",
      "outputs": [
        {
          "components": [
            {
              "internalType": "string",
              "name": "name",
              "type": "string"
            },
            {
              "internalType": "uint256",
              "name": "voteCount",
              "type": "uint256"
            }
          ],
          "internalType": "struct Voting.Candidate[]",
          "name": "",
          "type": "tuple[]"
        }
      ],
      "stateMutability": "view",
      "type": "function"
    },
    {
      "inputs": [
        {
          "internalType": "address",
          "name": "",
          "type": "address"
        }
      ],
      "name": "hasVoted",
      "outputs": [
        {
          "internalType": "bool",
          "name": "",
          "type": "bool"
        }
      ],
      "stateMutability": "view",
      "type": "function"
    },
    {
      "inputs": [
        {
          "internalType": "address",
          "name": "_voter",
          "type": "address"
        }
      ],
      "name": "hasVoterVoted",
      "outputs": [
        {
          "internalType": "bool",
          "name": "",
          "type": "bool"
        }
      ],
      "stateMutability": "view",
      "type": "function"
    },
    {
      "inputs": [
        {
          "internalType": "address",
          "name": "_voter",
          "type": "address"
        }
      ],
      "name": "isRegisteredVoter",
      "outputs": [
        {
          "internalType": "bool",
          "name": "",
          "type": "bool"
        }
      ],
      "stateMutability": "view",
      "type": "function"
    },
    {
      "inputs": [],
      "name": "owner",
      "outputs": [
        {
          "internalType": "address",
          "name": "",
          "type": "address"
        }
      ],
      "stateMutability": "view",
      "type": "function"
    },
    {
      "inputs": [
        {
          "internalType": "address",
          "name": "_voterAddress",
          "type": "address"
        }
      ],
      "name": "registerVoter",
      "outputs": [],
      "stateMutability": "nonpayable",
      "type": "function"
    },
    {
      "inputs": [],
      "name": "startElection",
      "outputs": [],
      "stateMutability": "nonpayable",
      "type": "function"
    },
    {
      "inputs": [
        {
          "internalType": "uint256",
          "name": "_candidateId",
          "type": "uint256"
        }
      ],
      "name": "vote",
      "outputs": [],
      "stateMutability": "nonpayable",
      "type": "function"
    },
    {
      "inputs": [
        {
          "internalType": "address",
          "name": "",
          "type": "address"
        }
      ],
      "name": "voters",
      "outputs": [
        {
          "internalType": "bool",
          "name": "",
          "type": "bool"
        }
      ],
      "stateMutability": "view",
      "type": "function"
    }
  ],
  "bytecode": "0x608060405234801561001057600080fd5b50336000806101000a81548173ffffffffffffffffffffffffffffffffffffffff021916908373ffffffffffffffffffffffffffffffffffffffff16021790555060008060146101000a81548160ff0219169083151502179055506000600281905550611c14806100826000396000f3fe608060405234801561001057600080fd5b50600436106100f55760003560e01c80634717f97c116100975780638da5cb5b116100665780638da5cb5b1461024e578063a3ec138d1461026c578063da36cffe1461029c578063fd11f97a146102cc576100f5565b80634717f97c146101fe57806359f784681461021c57806362d73eb8146102265780637ed628bb14610230576100f5565b80633477ee2e116100d35780633477ee2e1461016457806335b8e8201461019557806338db6dd3146101c6578063462e91ec146101e2576100f5565b80630121b93f146100fa57806309eef43e146101165780632d35a8a214610146575b600080fd5b610114600480360381019061010f9190610f92565b6102fc565b005b610130600480360381019061012b919061101d565b610573565b60405161013d9190611065565b60405180910390f35b61014e610593565b60405161015b919061108f565b60405180910390f35b61017e60048036038101906101799190610f92565b610599565b60405161018c92919061113a565b60405180910390f35b6101af60048036038101906101aa9190610f92565b610645565b6040516101bd92919061113a565b60405180910390f35b6101e060048036038101906101db919061101d565b61074f565b005b6101fc60048036038101906101f7919061129f565b610908565b005b610206610a89565b6040516102139190611440565b60405180910390f35b610224610bdf565b005b61022e610d04565b005b610238610e2b565b6040516102459190611065565b60405180910390f35b610256610e3e565b6040516102639190611471565b60405180910390f35b6102866004803603810190610281919061101d565b610e62565b6040516102939190611065565b60405180910390f35b6102b660048036038101906102b1919061101d565b610e82565b6040516102c39190611065565b60405180910390f35b6102e660048036038101906102e1919061101d565b610ed8565b6040516102f39190611065565b60405180910390f35b600360003373ffffffffffffffffffffffffffffffffffffffff1673ffffffffffffffffffffffffffffffffffffffff16815260200190815260200160002060009054906101000a900460ff16610388576040517f08c379a000000000000000000000000000000000000000000000000000000000815260040161037f906114d8565b60405180910390fd5b600460003373ffffffffffffffffffffffffffffffffffffffff1673ffffffffffffffffffffffffffffffffffffffff16815260200190815260200160002060009054906101000a900460ff1615610415576040517f08c379a000000000000000000000000000000000000000000000000000000000815260040161040c90611544565b60405180910390fd5b600060149054906101000a900460ff16610464576040517f08c379a000000000000000000000000000000000000000000000000000000000815260040161045b906115b0565b60405180910390fd5b60025481106104a8576040517f08c379a000000000000000000000000000000000000000000000000000000000815260040161049f9061161c565b60405180910390fd5b6001600082815260200190815260200160002060010160008154809291906104cf9061166b565b91905055506001600460003373ffffffffffffffffffffffffffffffffffffffff1673ffffffffffffffffffffffffffffffffffffffff16815260200190815260200160002060006101000a81548160ff021916908315150217905550803373ffffffffffffffffffffffffffffffffffffffff167fa36cc2bebb74db33e9f88110a07ef56e1b31b24b4c4f51b54b1664266e29f45b60405160405180910390a350565b60046020528060005260406000206000915054906101000a900460ff1681565b60025481565b60016020528060005260406000206000915090508060000180546105bc906116e2565b80601f01602080910402602001604051908101604052809291908181526020018280546105e8906116e2565b80156106355780601f1061060a57610100808354040283529160200191610635565b820191906000526020600020905b81548152906001019060200180831161061857829003601f168201915b5050505050908060010154905082565b60606000600254831061068d576040517f08c379a00000000000000000000000000000000000000000000000000000000081526004016106849061161c565b60405180910390fd5b6001600084815260200190815260200160002060000160016000858152602001908152602001600020600101548180546106c6906116e2565b80601f01602080910402602001604051908101604052809291908181526020018280546106f2906116e2565b801561073f5780601f106107145761010080835404028352916020019161073f565b820191906000526020600020905b81548152906001019060200180831161072257829003601f168201915b5050505050915091509150915091565b60008054906101000a900473ffffffffffffffffffffffffffffffffffffffff1673ffffffffffffffffffffffffffffffffffffffff163373ffffffffffffffffffffffffffffffffffffffff16146107dd576040517f08c379a00000000000000000000000000000000000000000000000000000000081526004016107d490611785565b60405180910390fd5b600360008273ffffffffffffffffffffffffffffffffffffffff1673ffffffffffffffffffffffffffffffffffffffff16815260200190815260200160002060009054906101000a900460ff161561086a576040517f08c379a0000000000000000000000000000000000000000000000000000000008152600401610861906117f1565b60405180910390fd5b6001600360008373ffffffffffffffffffffffffffffffffffffffff1673ffffffffffffffffffffffffffffffffffffffff16815260200190815260200160002060006101000a81548160ff0219169083151502179055508073ffffffffffffffffffffffffffffffffffffffff167fb6be2187d059cc2a55fe29e0e503b566e1e0f8c8780096e185429350acffd3dd60405160405180910390a250565b60008054906101000a900473ffffffffffffffffffffffffffffffffffffffff1673ffffffffffffffffffffffffffffffffffffffff163373ffffffffffffffffffffffffffffffffffffffff1614610996576040517f08c379a000000000000000000000000000000000000000000000000000000000815260040161098d90611785565b60405180910390fd5b600060149054906101000a900460ff16156109e6576040517f08c379a00000000000000000000000000000000000000000000000000000000081526004016109dd90611883565b60405180910390fd5b604051806040016040528082815260200160008152506001600060025481526020019081526020016000206000820151816000019081610a269190611a4f565b50602082015181600101559050506002547fe83b2a43e7e82d975c8a0a6d2f045153c869e111136a34d1889ab7b598e396a382604051610a669190611b21565b60405180910390a260026000815480929190610a819061166b565b919050555050565b6060600060025467ffffffffffffffff811115610aa957610aa8611174565b5b604051908082528060200260200182016040528015610ae257816020015b610acf610f2e565b815260200190600190039081610ac75790505b50905060005b600254811015610bd75760016000828152602001908152602001600020604051806040016040529081600082018054610b20906116e2565b80601f0160208091040260200160405190810160405280929190818152602001828054610b4c906116e2565b8015610b995780601f10610b6e57610100808354040283529160200191610b99565b820191906000526020600020905b815481529060010190602001808311610b7c57829003601f168201915b50505050508152602001600182015481525050828281518110610bbf57610bbe611b43565b5b60200260200101819052508080600101915050610ae8565b508091505090565b60008054906101000a900473ffffffffffffffffffffffffffffffffffffffff1673ffffffffffffffffffffffffffffffffffffffff163373ffffffffffffffffffffffffffffffffffffffff1614610c6d576040517f08c379a0000000000000000000000000000000000000000000000000000000008152600401610c6490611785565b60405180910390fd5b600060149054906101000a900460ff16610cbc576040517f08c379a0000000000000000000000000000000000000000000000000000000008152600401610cb3906115b0565b60405180910390fd5b60008060146101000a81548160ff0219169083151502179055507f66ec723071e4bb646f7b35d31bc2dee8510979bd8c180edd0690d4f5e802f1e460405160405180910390a1565b60008054906101000a900473ffffffffffffffffffffffffffffffffffffffff1673ffffffffffffffffffffffffffffffffffffffff163373ffffffffffffffffffffffffffffffffffffffff1614610d92576040517f08c379a0000000000000000000000000000000000000000000000000000000008152600401610d8990611785565b60405180910390fd5b600060149054906101000a900460ff1615610de2576040517f08c379a0000000000000000000000000000000000000000000000000000000008152600401610dd990611bbe565b60405180910390fd5b6001600060146101000a81548160ff0219169083151502179055507fc475c26aa25ed8e85a7faa790e5f63b5d7ee1025f12821f4c9bfddd36ab4d11260405160405180910390a1565b600060149054906101000a900460ff1681565b60008054906101000a900473ffffffffffffffffffffffffffffffffffffffff1681565b60036020528060005260406000206000915054906101000a900460ff1681565b6000600360008373ffffffffffffffffffffffffffffffffffffffff1673ffffffffffffffffffffffffffffffffffffffff16815260200190815260200160002060009054906101000a900460ff169050919050565b6000600460008373ffffffffffffffffffffffffffffffffffffffff1673ffffffffffffffffffffffffffffffffffffffff16815260200190815260200160002060009054906101000a900460ff169050919050565b604051806040016040528060608152602001600081525090565b6000604051905090565b600080fd5b600080fd5b6000819050919050565b610f6f81610f5c565b8114610f7a57600080fd5b50565b600081359050610f8c81610f66565b92915050565b600060208284031215610fa857610fa7610f52565b5b6000610fb684828501610f7d565b91505092915050565b600073ffffffffffffffffffffffffffffffffffffffff82169050919050565b6000610fea82610fbf565b9050919050565b610ffa81610fdf565b811461100557600080fd5b50565b60008135905061101781610ff1565b92915050565b60006020828403121561103357611032610f52565b5b600061104184828501611008565b91505092915050565b60008115159050919050565b61105f8161104a565b82525050565b600060208201905061107a6000830184611056565b92915050565b61108981610f5c565b82525050565b60006020820190506110a46000830184611080565b92915050565b600081519050919050565b600082825260208201905092915050565b60005b838110156110e45780820151818401526020810190506110c9565b60008484015250505050565b6000601f19601f8301169050919050565b600061110c826110aa565b61111681856110b5565b93506111268185602086016110c6565b61112f816110f0565b840191505092915050565b600060408201905081810360008301526111548185611101565b90506111636020830184611080565b9392505050565b600080fd5b600080fd5b7f4e487b7100000000000000000000000000000000000000000000000000000000600052604160045260246000fd5b6111ac826110f0565b810181811067ffffffffffffffff821117156111cb576111ca611174565b5b80604052505050565b60006111de610f48565b90506111ea82826111a3565b919050565b600067ffffffffffffffff82111561120a57611209611174565b5b611213826110f0565b9050602081019050919050565b82818337600083830152505050565b600061124261123d846111ef565b6111d4565b90508281526020810184848401111561125e5761125d61116f565b5b611269848285611220565b509392505050565b600082601f8301126112865761128561116a565b5b813561129684826020860161122f565b91505092915050565b6000602082840312156112b5576112b4610f52565b5b600082013567ffffffffffffffff8111156112d3576112d2610f57565b5b6112df84828501611271565b91505092915050565b600081519050919050565b600082825260208201905092915050565b6000819050602082019050919050565b600082825260208201905092915050565b6000611330826110aa565b61133a8185611314565b935061134a8185602086016110c6565b611353816110f0565b840191505092915050565b61136781610f5c565b82525050565b6000604083016000830151848203600086015261138a8282611325565b915050602083015161139f602086018261135e565b508091505092915050565b60006113b6838361136d565b905092915050565b6000602082019050919050565b60006113d6826112e8565b6113e081856112f3565b9350836020820285016113f285611304565b8060005b8581101561142e578484038952815161140f85826113aa565b945061141a836113be565b925060208a019950506001810190506113f6565b50829750879550505050505092915050565b6000602082019050818103600083015261145a81846113cb565b905092915050565b61146b81610fdf565b82525050565b60006020820190506114866000830184611462565b92915050565b7f4f6e6c79207265676973746572656420766f746572732063616e20766f746500600082015250565b60006114c2601f836110b5565b91506114cd8261148c565b602082019050919050565b600060208201905081810360008301526114f1816114b5565b9050919050565b7f596f75206861766520616c726561647920766f74656400000000000000000000600082015250565b600061152e6016836110b5565b9150611539826114f8565b602082019050919050565b6000602082019050818103600083015261155d81611521565b9050919050565b7f456c656374696f6e206973206e6f742061637469766500000000000000000000600082015250565b600061159a6016836110b5565b91506115a582611564565b602082019050919050565b600060208201905081810360008301526115c98161158d565b9050919050565b7f496e76616c69642063616e646964617465204944000000000000000000000000600082015250565b60006116066014836110b5565b9150611611826115d0565b602082019050919050565b60006020820190508181036000830152611635816115f9565b9050919050565b7f4e487b7100000000000000000000000000000000000000000000000000000000600052601160045260246000fd5b600061167682610f5c565b91507fffffffffffffffffffffffffffffffffffffffffffffffffffffffffffffffff82036116a8576116a761163c565b5b600182019050919050565b7f4e487b7100000000000000000000000000000000000000000000000000000000600052602260045260246000fd5b600060028204905060018216806116fa57607f821691505b60208210810361170d5761170c6116b3565b5b50919050565b7f4f6e6c7920746865206f776e65722063616e20706572666f726d20746869732060008201527f616374696f6e0000000000000000000000000000000000000000000000000000602082015250565b600061176f6026836110b5565b915061177a82611713565b604082019050919050565b6000602082019050818103600083015261179e81611762565b9050919050565b7f566f74657220697320616c726561647920726567697374657265640000000000600082015250565b60006117db601b836110b5565b91506117e6826117a5565b602082019050919050565b6000602082019050818103600083015261180a816117ce565b9050919050565b7f43616e6e6f74206164642063616e6469646174657320647572696e672061637460008201527f69766520656c656374696f6e0000000000000000000000000000000000000000602082015250565b600061186d602c836110b5565b915061187882611811565b604082019050919050565b6000602082019050818103600083015261189c81611860565b9050919050565b60008190508160005260206000209050919050565b60006020601f8301049050919050565b600082821b905092915050565b6000600883026119057fffffffffffffffffffffffffffffffffffffffffffffffffffffffffffffffff826118c8565b61190f86836118c8565b95508019841693508086168417925050509392505050565b6000819050919050565b600061194c61194761194284610f5c565b611927565b610f5c565b9050919050565b6000819050919050565b61196683611931565b61197a61197282611953565b8484546118d5565b825550505050565b600090565b61198f611982565b61199a81848461195d565b505050565b5b818110156119be576119b3600082611987565b6001810190506119a0565b5050565b601f821115611a03576119d4816118a3565b6119dd846118b8565b810160208510156119ec578190505b611a006119f8856118b8565b83018261199f565b50505b505050565b600082821c905092915050565b6000611a2660001984600802611a08565b1980831691505092915050565b6000611a3f8383611a15565b9150826002028217905092915050565b611a58826110aa565b67ffffffffffffffff811115611a7157611a70611174565b5b611a7b82546116e2565b611a868282856119c2565b600060209050601f831160018114611ab95760008415611aa7578287015190505b611ab18582611a33565b865550611b19565b601f198416611ac7866118a3565b60005b82811015611aef57848901518255600182019150602085019450602081019050611aca565b86831015611b0c5784890151611b08601f891682611a15565b8355505b6001600288020188555050505b505050505050565b60006020820190508181036000830152611b3b8184611101565b905092915050565b7f4e487b7100000000000000000000000000000000000000000000000000000000600052603260045260246000fd5b7f456c656374696f6e20697320616c726561647920616374697665000000000000600082015250565b6000611ba8601a836110b5565b9150611bb382611b72565b602082019050919050565b60006020820190508181036000830152611bd781611b9b565b905091905056fea2646970667358221220e38cfdeb43397a174f48c6b1fb9b767331f803003d1ce50736f4935100f9a54c64736f6c63430008180033",
  "linkReferences": {},
  "deployedLinkReferences": {}
}